:100000000C94F3000C941B010C941B010C941B0129
:100010000C941B010C941B010C941B010C941B01F0
:100020000C941B010C941B010C941B010C941B01E0
:100030000C941B010C941B010C941B010C941B01D0
:100040000C94340E0C941B010C941B010C941B019A
:100050000C941B010C941B010C941B010C941B01B0
:100060000C947E0E0C941B015E16611664166716C6
:100070006A166D16701600030205000305010406DA
:10008000020400000000240027002A0000000000F5
:10009000250028002B000000000023002600290076
:1000A000040404040404040402020202020203031E
:1000B0000303030301020408102040800102040826
:1000C00010200102040810200000000800020100B6
:1000D0000003040700000000000000001F1C1F1E9A
:1000E0001F1E1F1F1E1F1E1F00407A10F35A00A064
:1000F000724E18090010A5D4E80000E876481700F1
:1001000000E40B54020000CA9A3B000000E1F50530
:10011000000080969800000040420F000000A0867A
:1001200001000000102700000000E80300000000AC
:100130006400000000000A00000000000100000050
:1001400000002C76D888DC674F0823DFC1DFAE596A
:10015000E1B1B796E5E3E453C63AE651997696E8FD
:10016000E6C28426EB898C9B62ED407C6FFCEFBC81
:100170009C9F40F2BAA56FA5F490055A2AF75C93AC
:100180006B6CF9676DC11BFCE0E40D47FEF520E6E2
:10019000B500D0ED902E0300943577050080841EC5
:1001A000080000204E0A000000C80C333333330F20
:1001B000986E12831141EF8D2114893BE65516CFBD
:1001C000FEE6DB18D1844B381BF77C1D901DA4BBC9
:1001D000E424203284725E228100C9F124ECA1E57E
:1001E0003D271B21EB2011241FBECFEFD8E0DEBF3F
:1001F000CDBF12E0A0E0B1E0EEE9F1E502C005906C
:100200000D92AE3FB107D9F725E0AEEFB2E001C0E5
:100210001D92A530B207E1F710E0C2EFD0E004C0B4
:100220002197FE010E944122C13FD107C9F70E94D8
:100230006E140C94C2280C940000089508950F9336
:100240001F93CF93DF93EC01423018F08C818860CC
:100250008C834F836887222329F0413019F48C81E5
:1002600084608C8364E670E080E090E00E94EE0D94
:100270006C8164FD31C0E881F9810284F385E02D51
:1002800042E063E0CE0109958BE496E40197F1F733
:10029000E881F9810284F385E02D42E063E0CE013C
:1002A000099503E512E0C8010197F1F7E881F981AA
:1002B0000284F385E02D42E063E0CE010995C80198
:1002C0000197F1F7E881F9810284F385E02D42E09E
:1002D00062E0CE01099517C06062CE010E94041051
:1002E0008BE496E40197F1F76C816062CE010E9485
:1002F000041003E512E0C8010197F1F76C81606218
:10030000CE010E940410C8010197F1F76C81606270
:10031000CE010E9404108BEE90E00197F1F784E08B
:100320008D836CE0CE010E940410CE010E94141057
:1003300082E08E8366E0CE010E940410CE01DF9140
:10034000CF911F910F910C940C10CF93DF93FC0170
:100350002381222391F0EC018181809568236083C1
:1003600082810E94C612688184E294E00E94F50AAC
:100370000E946912282F30E002C020E030E081E0C6
:1003800090E0232B11F080E090E0DF91CF91089571
:10039000AF92BF92CF92DF92EF92FF920F931F9393
:1003A000CF93DF931F92CDB7DEB75C017B018B014A
:1003B0006C0182E0C80ED11CF80161918F01C5016A
:1003C00069830E945B286981681719F0C5010E9442
:1003D0006328FFEFAF1ABF0AAC14BD0469F7C70169
:1003E0000F90DF91CF911F910F91FF90EF90DF90D1
:1003F000CF90BF90AF900895EF92FF920F931F930D
:10040000CF93DF931F92CDB7DEB78C017B01FB0149
:10041000608169830E945B286981681719F0C801AF
:100420000E946328C7010F90DF91CF911F910F9118
:10043000FF90EF9008950F931F93CF93DF938C015C
:10044000EB010E945B288883C80101960E945B280B
:100450008983CE01DF91CF911F910F910895CF93A2
:10046000DF93EB010E945B288883CE01DF91CF915F
:100470000895CF93DF93CDB7DEB72C970FB6F894DE
:10048000DEBF0FBECDBFCE0101960E941E138CE0D1
:10049000FE013196A7E4B3E001900D928A95E1F751
:1004A00080914B0320914C0330E09CE3899F200D09
:1004B000311D112460910503709106035091FF02D4
:1004C00040E0842F90E0FC01EE0FFF1FEB5FFC4F3C
:1004D0000190F081E02D2E173F0774F00196FC018A
:1004E000EE0FFF1FEB5FFC4F0190F081E02D2E1708
:1004F0003F0714F4451760F02617370724F0451717
:1005000029F04F5FDECF80E090E002C08FEF9FEFD9
:100510002C960FB6F894DEBF0FBECDBFDF91CF9102
:100520000895CF92DF92EF92FF920F931F93CF9394
:10053000DF93CDB7DEB72E970FB6F894DEBF0FBEB0
:10054000CDBFCE0103960E941E138CE0FE013396B0
:10055000A7E4B3E001900D928A95E1F78091FE0245
:10056000813041F500914E0380E4089F8001112401
:100570000653110995E0C92E93E0D92EE12CF12CF8
:100580008091FF0290E0E816F906F4F5BE016F5F76
:100590007F4FC8010E941B0289819A81F6018193D5
:1005A00091936F010E5F1F4F1A821982FFEFEF1AAE
:1005B000FF0AE6CF823041F500914E0380E4089FA8
:1005C0008001112406571E4F85E0C82E83E0D82EE7
:1005D000E12CF12C8091FF0290E0E816F906A4F4DA
:1005E000BE016F5F7F4FC8010E941B0289819A8103
:1005F000F601819391936F010E5F1F4F1A8219824A
:10060000FFEFEF1AFF0AE6CF87EE94E00E94141086
:1006100060E080E00E949D102E960FB6F894DEBF39
:100620000FBECDBFDF91CF911F910F91FF90EF9043
:10063000DF90CF900895AF92BF92CF92DF92EF926A
:10064000FF920F931F93CF93DF9387EE94E00E9466
:10065000141060E080E00E949D1084E692E00E9409
:10066000F21061E771E08CE694E00E94920C61E088
:1006700080E00E949D100E94641280930403282F42
:10068000082E000C330B205331092A30310550F469
:10069000682F8CE694E00E947F0C61E080E00E946D
:1006A0009D101CC08334F9F487EE94E00E9414106E
:1006B00060E080E00E949D1084E692E00E94F210CB
:1006C00061E080E00E949D1060917004709171045F
:1006D000615071098CE694E00E94440C8CE694E031
:1006E0000E94D710C8CF833281F48CE694E00E9438
:1006F000390C613E774081059105D4F080917004FA
:10070000909171040497A1F444C08A3209F0B3CFE8
:1007100061E771E08CE694E0DF91CF911F910F913A
:10072000FF90EF90DF90CF90BF90AF900C94920C21
:100730000E9411110E94081187EE94E00E9414108B
:1007400060E080E00E949D1088E492E00E94F21038
:1007500060ED77E080E090E00E94EE0D87EE94E09F
:100760000E94141060E080E00E949D1087EB92E0F0
:100770000E94F2100E94FE100E94F41061E080E0DE
:100780000E949D1061E771E08CE694E00E94920C5B
:1007900072CF87EE94E00E94141060E080E00E9427
:1007A0009D108FE692E00E94F21061E080E00E94CE
:1007B0009D1061E771E086E694E00E94920C0E9431
:1007C000641280930403282F082E000C330B20534F
:1007D00031092A30310550F4682F86E694E00E94F2
:1007E0007F0C61E080E00E949D101CC08334F9F40E
:1007F00087EE94E00E94141060E080E00E949D105B
:100800008FE692E00E94F21061E080E00E949D106D
:1008100060916A0470916B046150710986E694E0FE
:100820000E94440C86E694E00E94D710C8CF833221
:10083000A9F486E694E00E94390CDC01CB01019713
:10084000A109B1090C97A105B105B0F480916A0422
:1008500090916B040197029778F435C08A3209F0C1
:10086000AECF61E771E08CE694E00E94920C61E704
:1008700071E086E694E050CF0E9411110E940811A9
:1008800087EE94E00E94141060E080E00E949D10CA
:1008900088E492E00E94F21060ED77E080E090E062
:1008A0000E94EE0D87EE94E00E94141060E080E05C
:1008B0000E949D108FE692E00E94F2100E94FE10AE
:1008C0000E94F41072CF87EE94E00E94141060E052
:1008D00080E00E949D108EE792E00E94F21061E09D
:1008E00080E00E949D1061E771E080E694E00E9444
:1008F000920C0E94641280930403282F082E000C8F
:10090000330B205331092A30310550F4682F80E62B
:1009100094E00E947F0C61E080E00E949D101CC06A
:100920008334F9F487EE94E00E94141060E080E0D4
:100930000E949D108EE792E00E94F21061E080E03C
:100940000E949D106091640470916504615071096A
:1009500080E694E00E94440C80E694E00E94D71068
:10096000C8CF833209F580E694E00E94390CDC019F
:10097000CB010197A109B1094F97A105B10520F558
:10098000809164049091650401970297E8F487EEE2
:1009900094E00E94141060E080E00E949D108BE8BB
:1009A00092E00E94F2106AC08A3209F0A2CF61E799
:1009B00071E080E694E00E94920C61E771E086E6C7
:1009C00094E00E94920CA4CE0E9411110E94081182
:1009D00087EE94E00E94141060E080E00E949D1079
:1009E00088E492E00E94F21060ED77E080E090E011
:1009F0000E94EE0D87EE94E00E94141060E080E00B
:100A00000E949D108EE792E00E94F2100E94FE105C
:100A10000E94F41064CF833209F07CC08AE594E030
:100A20000E94390C683171058105910508F469C08F
:100A30000E9411110E94081187EE94E00E94141088
:100A400060E080E00E949D1088E492E00E94F21035
:100A500060ED77E080E090E00E94EE0D87EE94E09C
:100A60000E94141060E080E00E949D108BE892E0EC
:100A70000E94F2100E94FE100E94F41061E080E0DB
:100A80000E949D1061E771E08AE594E00E94920C5B
:100A90000E94641280930403282F082E000C330B4D
:100AA000205331092A30310550F4682F8AE594E04B
:100AB0000E947F0C61E080E00E949D101DC0833485
:100AC00009F0A9CF87EE94E00E94141060E080E066
:100AD0000E949D108BE892E00E94F21061E080E09D
:100AE0000E949D1060915E0470915F0461507109D5
:100AF0008AE594E00E94440C8AE594E00E94D710B5
:100B0000C7CF80915E0490915F040197029708F02F
:100B10008FCF0AC08A3209F0BBCF61E771E08AE566
:100B200094E00E94920C43CF87EE94E00E94141050
:100B300060E080E00E949D108AE992E00E94F2103D
:100B400061E080E00E949D1061E771E084E594E03F
:100B50000E94920C0E94641280930403282F082E96
:100B6000000C330B205331092A30310550F4682F23
:100B700084E594E00E947F0C61E080E00E949D107B
:100B80001CC08334F9F487EE94E00E94141060E0F6
:100B900080E00E949D108AE992E00E94F21061E0DC
:100BA00080E00E949D10609158047091590461503A
:100BB000710984E594E00E94440C84E594E00E946D
:100BC000D710C8CF833289F484E594E00E94390CB1
:100BD0006C3371058105910590F4809158049091D2
:100BE00059040197029758F431C08A3209F0B2CF04
:100BF00061E771E084E594E00E94920C8ECF0E9440
:100C000011110E94081187EE94E00E94141060E018
:100C100080E00E949D1088E492E00E94F21060ED56
:100C200077E080E090E00E94EE0D87EE94E00E9475
:100C3000141060E080E00E949D108AE992E00E941A
:100C4000F2100E94FE100E94F4107ACF87EE94E01A
:100C50000E94141060E080E00E949D1088EA92E0FB
:100C60000E94F21061E080E00E949D1061E771E057
:100C70008EE494E00E94920C0E946412809304031C
:100C8000282F082E000C330B205331092A30310550
:100C900050F4682F8EE494E00E947F0C61E080E0C5
:100CA0000E949D101CC08334F9F487EE94E00E94EA
:100CB000141060E080E00E949D1088EA92E00E949B
:100CC000F21061E080E00E949D10609152047091EA
:100CD0005304615071098EE494E00E94440C8EE448
:100CE00094E00E94D710C8CF8332A9F48EE494E038
:100CF0000E94390C6C3371058105910508F0EDC037
:100D00002091520430915304215031092230310591
:100D100008F0E3C00AC08A3209F0AECF61E771E0A3
:100D20008EE494E00E94920C63CF162F84E594E049
:100D30000E94390CA62E8AE594E00E94390CB62E4A
:100D400080E694E00E94390CC62F86E694E00E946B
:100D5000390CD62F8CE694E00E94390C6B017C0193
:100D600088E60E94C61280E090E00E9419130AE013
:100D7000812F602F0E94FF21692F20E1829F600D4B
:100D8000112484E294E00E94F50A8A2D602F0E94CB
:100D9000FF21692F20E1829F600D112484E294E0FD
:100DA0000E94F50A8B2D602F0E94FF21692F20E100
:100DB000829F600D112484E294E00E94F50A81E094
:100DC00090E0D33010F080E090E09601281B390BC2
:100DD000ED2FF0E0EB58FF4FE491F0E0EC0FF11D48
:100DE000E20FF31FC9019695879596958795E80FB1
:100DF000F91FC90160E971E00E940B22E60FF71F9D
:100E0000C90164E670E00E940B22CF01861B970B9C
:100E100067E070E00E940B22009709F487E01AE077
:100E2000612F0E94FF21692F84E294E00E94F50A5D
:100E30008C2F612F0E94FF21692F20E1829F600D7E
:100E4000112484E294E00E94F50A8D2F612F0E9404
:100E5000FF21692F20E1829F600D112484E294E03C
:100E60000E94F50A80E38C0D612F0E94FF21692FFB
:100E700020E1829F600D112484E294E00E94F50A33
:100E800080E090E00E9419130E9469120E941111E3
:100E90000E94081187EE94E00E94141060E080E048
:100EA0000E949D108CE392E00E94F21068EB7BE0C0
:100EB00080E090E00E94EE0D0E9491020E943902B3
:100EC000909346038093450387EE94E00E941410AC
:100ED00060E080E00E949D1021CF0E9411110E94CD
:100EE000081187EE94E00E94141060E080E00E94F8
:100EF0009D1088E492E00E94F21060ED77E080E0BF
:100F000090E00E94EE0D87EE94E00E94141060E0E5
:100F100080E00E949D1088EA92E00E94F2100E94F8
:100F2000FE100E94F4109ECECF93DF9300D000D02D
:100F300000D0CDB7DEB787EE94E00E94141060E0D9
:100F400080E00E949D1083EC92E00E94F21061E02C
:100F500081E00E949D108FEB91E00E94F21061E011
:100F600080E00E949D1061E771E08CE394E00E94B4
:100F7000920C0E94641280930403282F082E000C08
:100F8000330B205331092A30310550F4682F8CE39C
:100F900094E00E947F0C61E080E00E949D10F3C10C
:100FA000833209F0D4C18CE394E00E94390C161608
:100FB0001706180619060CF0A3C187EE94E00E94EC
:100FC000141060E080E00E949D1081ED92E00E948C
:100FD000F21061E081E00E949D108FEB91E00E9491
:100FE000F21061E080E00E949D1061E771E080E313
:100FF00094E00E94920C0E94641280930403282FB4
:10100000082E000C330B205331092A30310550F4DF
:10101000682F80E394E00E947F0C61E080E00E94F2
:101020009D1047C1833209F028C180E394E00E94FB
:10103000390C16161706180619060CF0F7C087EEBD
:1010400094E00E94141060E080E00E949D1082EE07
:1010500092E00E94F21061E081E00E949D108FEB0F
:1010600091E00E94F21061E080E00E949D1061E733
:1010700071E086E394E00E94920C0E9464128093D7
:101080000403282F082E000C330B205331092A307B
:10109000310550F4682F86E394E00E947F0C61E0F4
:1010A00080E00E949D1095C0833209F076C086E3EF
:1010B00094E00E94390C16161706180619060CF053
:1010C00045C08CE394E00E94390C70930303609355
:1010D000020380E394E00E94390C6093010386E3ED
:1010E00094E00E94390C6093000361E073E083E0B8
:1010F00090E00E94FC0160E073E084E090E00E94D8
:10110000FC0162E073E085E090E00E94C8010E946B
:1011100008110E94111187EE94E00E94141060E003
:1011200080E00E949D108CE392E00E94F21068EB38
:101130007BE080E090E00E94EE0D87EE94E00E945C
:10114000141060E080E00E949D105FC00E941111A9
:101150000E94081187EE94E00E94141060E080E085
:101160000E949D1088E492E00E94F21060ED77E00A
:1011700080E090E00E94EE0D87EE94E00E94141053
:1011800060E080E00E949D1082EE92E00E94F210EA
:101190000E94FE100E94F4105ECF833499F587EE12
:1011A00094E00E94141060E080E00E949D1080EFA7
:1011B00092E00E94F21061E080E00E949D10609138
:1011C0003A0470913B046150710986E394E00E94F7
:1011D000440C66E374E0CE0101960E941F0D6FEB94
:1011E00071E0CE0101960E94530C0E94D710CE01EF
:1011F00001960E94A90C80913A0461E081500E94FE
:101200009D103BCF8A3209F038CF61E771E08CE363
:1012100094E00E94920C61E771E080E394E00E9408
:10122000920C61E771E086E394E0CDC00E94111159
:101230000E94081187EE94E00E94141060E080E0A4
:101240000E949D1088E492E00E94F21060ED77E029
:1012500080E090E00E94EE0D87EE94E00E94141072
:1012600060E080E00E949D1081ED92E00E94F2100B
:101270000E94FE100E94F410ACCE833499F587EEE4
:1012800094E00E94141060E080E00E949D1081EDC7
:1012900092E00E94F21061E080E00E949D10609157
:1012A0003404709135046150710980E394E00E9428
:1012B000440C60E374E0CE0101960E941F0D6FEBB9
:1012C00071E0CE0101960E94530C0E94D710CE010E
:1012D00001960E94A90C8091340461E081500E9423
:1012E0009D1089CE8A3209F086CE61E771E08CE3E9
:1012F00094E00E94920C61E771E080E394E063C0A7
:101300000E9411110E94081187EE94E00E941410AF
:1013100060E080E00E949D1088E492E00E94F2105C
:1013200060ED77E080E090E00E94EE0D87EE94E0C3
:101330000E94141060E080E00E949D1083EC92E017
:101340000E94F2100E94FE100E94F41000CE83341E
:1013500099F587EE94E00E94141060E080E00E940E
:101360009D1083EC92E00E94F21061E080E00E9408
:101370009D106091400470914104615071098CE3AB
:1013800094E00E94440C6CE374E0CE0101960E944C
:101390001F0D6FEB71E0CE0101960E94530C0E946D
:1013A000D710CE0101960E94A90C8091400461E003
:1013B00081500E949D10DDCD8A3209F0DACD61E7BF
:1013C00071E08CE394E00E94920C26960FB6F8949C
:1013D000DEBF0FBECDBFDF91CF910895CF92DF92D8
:1013E000EF92FF920F931F93CF93DF936C017A01DB
:1013F0008B01C0E0D0E0CE15DF0589F0D8016D91FA
:101400008D01D601ED91FC910190F081E02DC60196
:101410000995892B11F47E0102C02196ECCFC701FA
:10142000DF91CF911F910F91FF90EF90DF90CF90C0
:101430000895833081F028F4813099F08230A1F052
:1014400008958730A9F08830B9F08430D1F48091C4
:1014500080008F7D03C0809180008F778093800013
:10146000089584B58F7702C084B58F7D84BD0895BB
:101470008091B0008F7703C08091B0008F7D809302
:10148000B00008953FB7F8948091A8039091A90304
:10149000A091AA03B091AB0326B5A89B05C02F3F2E
:1014A00019F00196A11DB11D3FBFBA2FA92F982F8A
:1014B0008827820F911DA11DB11DBC01CD0142E005
:1014C000660F771F881F991F4A95D1F7089585EDFC
:1014D0008093BC008091BC0084FDFCCF109200047E
:1014E000089540917E03262F30E0240F311D2132D4
:1014F0003105DCF4209100042430C9F4FC0180E0C3
:1015000090E0861758F430917E032191DC01A45AB3
:10151000BC4FA30FB11D2C930196F3CF80917E0396
:10152000680F60937E0380E0089581E0089582E073
:1015300008950895E091B9038091B803E81730F455
:10154000F0E0E654FC4F808190E008958FEF9FEF2C
:1015500008959091B9038091B803981750F4E92F3A
:10156000F0E0E654FC4F208130E09F5F9093B90398
:1015700002C02FEF3FEFC90108958091B80390E0BA
:101580002091B903821B91090895CF92DF92EF92C7
:10159000FF920F931F93CF93DF937C01262F972FFA
:1015A0008A0180910104882391F0C62FD72F6E0104
:1015B000C40ED51ECC15DD0571F06991D701ED91F2
:1015C000FC910190F081E02DC7010995F3CF642FC4
:1015D000822F0E94710AC801DF91CF911F910F9154
:1015E000FF90EF90DF90CF900895CF93DF931F92FD
:1015F000CDB7DEB76983209101042223D1F0209179
:101600002304203240F021E030E0FC0133832283C8
:1016100080E090E015C080910204E82FF0E0ED5FDB
:10162000FB4F998190838F5F809302048093230402
:1016300005C061E0CE0101960E94710A81E090E050
:101640000F90DF91CF91089521E001C0220F6A959C
:10165000EAF7DC011C962C931C971A965C934E9328
:101660001997ED91FC910084F185E02D60E00994DB
:10167000DC01ED91FC910284F385E02D41E00995B8
:1016800081E090E008950E943E240F931F93CF9332
:10169000DF93EC0188819981009729F02A813B81B1
:1016A0002617370788F48B016F5F7F4F0E947423E2
:1016B000009761F0998388831B830A832C813D8185
:1016C000232B11F4FC01108281E001C080E0DF9146
:1016D000CF911F910F910895EF92FF920F931F9357
:1016E000CF93DF93FC01248135816115710511F4DD
:1016F00080E019C041155105A9F07B01EC018A0178
:10170000020F131FB8010E94450B882389F328811B
:1017100039818C819D81B701820F931F0E944C24D7
:101720001D830C8381E0DF91CF911F910F91FF907A
:10173000EF900895CF93DF93EC0188819981009712
:1017400011F00E94DC22198218821D821C821B82E9
:101750001A82DF91CF910895EF92FF920F931F931A
:10176000CF93DF93EC017B018A01BA010E94450B04
:10177000811104C0CE010E949A0B07C01D830C8307
:10178000B701888199810E944C24CE01DF91CF91CD
:101790001F910F91FF90EF900895EF92FF920F939A
:1017A0001F93CF938C01FC01759684E0C0E060FF2D
:1017B00002C09081C92B6695815031968111F7CF77
:1017C000413011F4F8014489F8018585C82BC42BF8
:1017D0007801FEE0EF0EF11CF80162896C2BC70165
:1017E0000E94A501F801628960956C23C701CF9121
:1017F0001F910F91FF90EF900C94A5010F931F93F1
:10180000CF93DF93062F0F70423019F440E0602F22
:1018100010C0142F262FEC0130E0B90184E075953B
:1018200067958A95E1F7CE010E94CD0B412F602F7D
:10183000CE01DF91CF911F910F910C94CD0BFC0144
:1018400084858823A9F0218532852115310519F475
:10185000611106C007C02130310521F4611102C0B9
:10186000858701C015866585CF010E960C94A5016C
:101870000895FC0180819181009711F00C947324EC
:1018800060E070E0CB010895FC01848195816817C8
:10189000790740F47583648380819181FC01E60FB0
:1018A000F71F10820895CF93DF93EC016115710546
:1018B00061F0FB0101900020E9F73197AF01461B71
:1018C000570B0E946C0B811103C0CE010E949A0B32
:1018D000CE01DF91CF910895CF93DF93EC01FB010F
:1018E00044815581608171810E946C0B811103C01C
:1018F000CE010E949A0BCE01DF91CF910895CF9334
:10190000DF9300D0CDB7DEB769831A8241E050E0A3
:10191000BE016F5F7F4F0E946C0B0F900F90DF91A5
:10192000CF910895CF93DF93EC016115710559F0C4
:10193000FB0101900020E9F73197AF01461B570BDF
:101940000E94AC0B02C00E949A0BCE01DF91CF9196
:101950000895FC01808191810C94DC220F931F93E8
:10196000CF93DF93CDB7DEB762970FB6F894DEBFA3
:101970000FBECDBF8C01CB01F80111821082138202
:1019800012821582148250E0BE016F5F7F4F0E9469
:101990009A24BE016F5F7F4FC8010E94920C62962D
:1019A0000FB6F894DEBF0FBECDBFDF91CF911F9170
:1019B0000F9108950F931F93CF93DF93CDB7DEB7A9
:1019C00029970FB6F894DEBF0FBECDBF8C01862FCE
:1019D000F80111821082138212821582148250E063
:1019E000BE016F5F7F4F90E00E94C524BE016F5F14
:1019F0007F4FC8010E94920C29960FB6F894DEBF63
:101A00000FBECDBFDF91CF911F910F910895CF935E
:101A1000DF9300D0CDB7DEB7FC01118210821382B4
:101A200012821582148269831A82BE016F5F7F4F12
:101A30000E94920C0F900F90DF91CF910895FB01BF
:101A4000DC0111961C921E9213961C921E92129704
:101A500015961C921E9214978617970749F060817D
:101A600071816115710521F0448155810C94AC0B95
:101A70000895FC0111821082138212821582148251
:101A80006115710551F0FB0101900020E9F73197D4
:101A9000AF01461B570B0C94AC0B0895CF93DF930B
:101AA000282F30E0F901E853FF4F8491F901EC54FD
:101AB000FF4FD491F901E056FF4FC491CC2391F030
:101AC00081110E94190AEC2FF0E0EE0FFF1FEA5679
:101AD000FF4FA591B491EC91ED2381E090E021F4CA
:101AE00080E002C080E090E0DF91CF910895862FE2
:101AF0000C944E0D1F93CF93DF93282F30E0F90104
:101B0000E853FF4F8491F901EC54FF4FD491F90150
:101B1000E056FF4FC491CC23C9F0162F81110E94CB
:101B2000190AEC2FF0E0EE0FFF1FE457FF4FA591CD
:101B3000B4918FB7F894111105C09C91ED2FE095E9
:101B4000E92302C0EC91ED2BEC938FBFDF91CF9195
:101B50001F910895862F642F0C947A0DCF93DF93F5
:101B600090E0FC01EC54FF4F2491FC01E056FF4F44
:101B70008491882361F190E0880F991FFC01EE5752
:101B8000FF4FC591D491FC01E457FF4FA591B4914B
:101B9000611109C09FB7F8948881209582238883BA
:101BA000EC912E230BC0623061F49FB7F89438811A
:101BB000822F809583238883EC912E2B2C939FBFBB
:101BC00006C08FB7F894E8812E2B28838FBFDF9152
:101BD000CF910895862F642F0C94AE0D8F929F9213
:101BE000AF92BF92CF92DF92EF92FF926B017C0196
:101BF0000E94420A4B015C01C114D104E104F104CA
:101C0000F1F00E94420ADC01CB0188199909AA0966
:101C1000BB09883E9340A105B10570F321E0C21ACB
:101C2000D108E108F10888EE880E83E0981EA11C17
:101C3000B11CC114D104E104F10419F7DDCFFF9008
:101C4000EF90DF90CF90BF90AF909F908F900895CE
:101C50002FB7F8946091A4037091A5038091A60317
:101C60009091A7032FBF08951F920F920FB60F9266
:101C700011242F933F938F939F93AF93BF938091A2
:101C8000A4039091A503A091A603B091A70330915E
:101C9000A30323E0230F2D3720F40196A11DB11DCE
:101CA00005C026E8230F0296A11DB11D2093A303B2
:101CB0008093A4039093A503A093A603B093A703D6
:101CC0008091A8039091A903A091AA03B091AB03BE
:101CD0000196A11DB11D8093A8039093A903A09321
:101CE000AA03B093AB03BF91AF919F918F913F91A6
:101CF0002F910F900FBE0F901F9018951F920F926B
:101D00000FB60F9211242F933F934F935F936F93CE
:101D10007F938F939F93AF93BF93EF93FF938091A4
:101D2000B900887F803609F49CC068F5883209F4D0
:101D30005BC090F4803109F454C038F4882309F46E
:101D4000F6C0883009F44DC0F6C0883109F44CC0A3
:101D5000803209F45DC0EFC0803409F468C048F4F3
:101D6000803309F455C0883309F0E5C08093FE0341
:101D7000D8C0803509F44FC0883509F45DC0883477
:101D800009F0D9C0D6C0883909F4C7C0A8F488378B
:101D900009F467C038F4883609F463C0803709F461
:101DA00060C0C9C0883809F4B8C0803909F45FC080
:101DB000803809F0C0C05BC0803B09F486C038F4AD
:101DC000803A09F466C0883A09F47FC0B4C0803C08
:101DD00009F4A7C0883C09F4A4C0883B09F48AC070
:101DE000AAC08091DB0310C09091FD038091FC0399
:101DF000981770F5E091FD0381E08E0F8093FD034D
:101E0000F0E0E452FC4F80818093BB0085EC86C0FB
:101E10008093FE038EC0E091FD0381E08E0F8093DE
:101E2000FD038091BB00F0E0E452FC4F8083909171
:101E3000FD038091FC036EC0E091FD0381E08E0FF5
:101E40008093FD038091BB00F0E0E452FC4F80835F
:101E50008091FF0381116DC081E08093DA0384EAF1
:101E600061C083E0809300041092A203CFCF8091E1
:101E7000A203803208F051C0E091A20381E08E0FEE
:101E80008093A2038091BB00F0E0EE57FC4F80836B
:101E9000BDCF85EC8093BC00109200048091A2031A
:101EA000803230F4E091A203F0E0EE57FC4F108254
:101EB0006091A20370E0E0918003F091810382E8D9
:101EC00093E009951092A20336C084E08093000449
:101ED00010927F0310927E03E0917C03F0917D03CA
:101EE000099580917E03811105C081E080937E0376
:101EF00010925C03E0917F0381E08E0F80937F035B
:101F0000F0E0E45AFC4F80818093BB0090917F0306
:101F100080917E03981708F479CF85E88093BC0000
:101F20000AC085EC8093BC001092000404C010929B
:101F3000FE030E94670AFF91EF91BF91AF919F91BD
:101F40008F917F916F915F914F913F912F910F9062
:101F50000FBE0F901F9018951092000481E080939F
:101F6000FF031092DA0361E082E10E947A0D61E0E2
:101F700083E10E947A0DE9EBF0E080818E7F80831F
:101F800080818D7F808388E48093B80085E480938E
:101F9000BC000895FF920F931F93CF93DF93EC0142
:101FA000162F042FF22E8B85888B1092B903109276
:101FB000B80310920204109223040E94AC0F888987
:101FC0000E94C6120E94691291E0811190E0998BE3
:101FD000992329F084E294E00E94A90A8E878989D6
:101FE000882339F01F861C8260E0CE010E960E9485
:101FF000A5012F2D402F612FCE01DF91CF911F9191
:102000000F91FF900C941F01DC01ED91FC91028473
:10201000F385E02D40E00994DC01ED91FC91008412
:10202000F185E02D6FEF099461E00E9404108BE3CD
:102030009FE10197F1F7089596E0899FD00111245F
:10204000A858BB4F90967C936E935F9791E09196C2
:102050009C9391979091E404E091E504F091E6045B
:10206000992339F0309751F0811108C08091940480
:1020700004C0309719F05C968C91099408950F93E1
:102080001F93CF93DF93C82FD62F86E0C89FF00110
:102090001124E858FB4F11A2878D90A18130910542
:1020A000F1F01CF4892B49F043C082309105A9F16D
:1020B0000397F1F560E070E034C06623C9F161E098
:1020C00070E08C2F0E941C100E94280E6093D00498
:1020D0007093D1048093D2049093D30429C00E94BA
:1020E000280E0091D0041091D1042091D204309197
:1020F000D304AB01BC01401B510B620B730B8091ED
:10210000E2049091E304A0E0B0E084179507A607ED
:10211000B70718F462E070E004C0D11109C063E0B1
:1021200070E08C2FDF91CF911F910F910C941C10B8
:10213000DF91CF911F910F910895CF93DF93CDB78A
:10214000DEB728970FB6F894DEBF0FBECDBF1D8255
:1021500090E49E8324E12F8324E5288719829A83C3
:1021600090E19B8390E59C839091EE04691710F0B9
:102170006FEF690F4091EF04262F30E0FE01E20F70
:10218000F31F403121F4943011F4918101C0958105
:10219000682F690F606887EE94E028960FB6F89470
:1021A000DEBF0FBECDBFDF91CF910C940410FC01B8
:1021B000448155816081718187EE94E00C94EE0931
:1021C000009769F0FC0101900020E9F73197AF0119
:1021D000481B590BBC0187EE94E00C94EE0980E09B
:1021E00090E008950C94E010E7EEF4E06581862F0E
:1021F000826085836A60CF010C940410E7EEF4E0FE
:102200006581862F816085836960CF010C940410FD
:10221000E7EEF4E065816D7F65836860CF010C9423
:102220000410E7EEF4E065816E7F65836860CF019E
:102230000C9404106F927F928F929F92AF92BF92F4
:10224000CF92DF92EF92FF920F931F93CF93DF9382
:1022500081E08093E4040E94280E0091D404109140
:10226000D5042091D6043091D704AB01BC01401BAA
:10227000510B620B730B8091E0049091E104A0E09C
:10228000B0E084179507A607B70708F00BC1C0E0B8
:102290008091DE04C81760F4E091DA04F091DB0469
:1022A000EC0FF11D62E080810E94AE0DCF5FF0CF98
:1022B000712C812C912C540183948091DF04781629
:1022C00008F05FC0072D10E0E091DC04F091DD0420
:1022D000E00FF11F61E080810E94AE0DE091DC040F
:1022E000F091DD04E00FF11F60E080810E947A0D23
:1022F000D501C401072C04C0880F991FAA1FBB1F5A
:102300000A94D2F76C017C01E094F094612C8091E6
:10231000DE046816F8F4C62DD0E0E091DA04F091FE
:10232000DB04EC0FFD1F80810E944E0D2496CC0F24
:10233000DD1FC858DB4F892B29F4888199818C29AE
:102340009D2904C0888199818E219F21998388834A
:102350006394DDCFE091DC04F091DD04E00FF11F28
:1023600061E080810E947A0D8091DC049091DD040F
:10237000FC01E00FF11F60E080810E94AE0D7394BC
:102380009CCFE4E9F4E08FEF9FEF23813481232B8E
:1023900021F41082928381831582369624E0E03DF9
:1023A000F20799F710E096E0F92E8091DE041817F5
:1023B00008F052C000E0C12FD0E0CC0FDD1FC058A4
:1023C000DB4F2091DF04021708F044C06881798157
:1023D000002E02C0769567950A94E2F76170772720
:1023E000129F90011124200F311DE091D804F0912B
:1023F000D904E20FF31F4081E8E7F4E080E0A58D07
:10240000B68DA217B30711F461701AC08F5F3696AC
:102410008A30A9F7672BE1F0E4E9F4E080E090E08E
:102420005081511110C0F89EF001F99EF00D112459
:10243000E858FB4F448F368F258F10A2178E61E02E
:102440000E943F1005C0019636968A30910541F7EB
:102450000F5FB7CF1F5FA9CF80E090E0C0E0FC0125
:10246000E858FB4F21A12111C1E006968C3391055C
:10247000B1F70E94280E6093D4047093D504809322
:10248000D6049093D704CC2369F0809199048823D3
:1024900049F08091970490919804019719F48091E4
:1024A000940403C01092E40480E0DF91CF911F9167
:1024B0000F91FF90EF90DF90CF90BF90AF909F90E3
:1024C0008F907F906F9008950E941A118823E1F3F6
:1024D00008952091230490910005213208F04AC00C
:1024E000809100048111FCCF32E03093000431E090
:1024F0003093FF033FEF3093FE031092FD032093D0
:10250000FC03A3E0B4E04CED53E0FA013E2F341B92
:10251000321718F43D913193F9CF1092DB032091DB
:10252000DB03990F922B9093DB039091DA039130A8
:1025300061F41092DA039091DB039093BB009091C9
:10254000BC0093FDF8CF95EC01C095EE9093BC00D4
:10255000909100049230E1F39091FE039F3F79F057
:102560008091FE03803241F08091FE03803331F090
:1025700084E005C081E003C082E001C083E01092E6
:1025800002041092230410920104089591E09093A4
:102590000104809300051092020410922304089510
:1025A000909100049111FCCF813208F080E291E01B
:1025B000909300049093FF032FEF2093FE0310925B
:1025C000FD03280F2093FC039093DB039091DB0322
:1025D000906D9093DB039091DA03913061F4109247
:1025E000DA039091DB039093BB009091BC0093FDC4
:1025F000F8CF95EC01C095EE9093BC00909100044B
:102600009130E1F39091FD03981710F48091FD0350
:10261000ACEDB3E02AEB33E0F9019E2F921B981743
:1026200018F49D919193F9CF1092B9038093B80358
:102630000895682F84E294E00C94F50ACF92DF921B
:10264000EF92FF920F931F93CF93DF93CDB7DEB737
:102650002E970FB6F894DEBF0FBECDBF8C0188E673
:102660000E94C61280E090E00E9419130E94691235
:1026700087E090E00E94D0129091B8038091B90356
:102680009817F1F37E012FE0E20EF11CCE010196C6
:102690006C0184E294E00E94A90A982F92959F70A1
:1026A0008F70EAE09E9F800D112490E0F7019293D5
:1026B00082937F01EC15FD0561F70E946912898103
:1026C0009A81AC014053584F5093AD034093AC03F3
:1026D0006B816093AE032D813E812093AF037F8198
:1026E0007093B303D984D092B003FB84F092B1030A
:1026F000ED84E092B2033327ECEDF0E071E07E1B55
:10270000A72FAE0FA61728F4A4912A0F311D3196DA
:10271000F7CF623039F4BC0163707727672B11F46F
:102720002F5F3F4FEDE6F1E08E9FB0018F9F700D60
:102730009E9F700D11244D5C5740569547955695B8
:102740004795460F571F41505109240F351FA8E1E7
:10275000B0E00E94B3289B01AC012D0D311D411D3D
:10276000511DACE3B0E00E9471289B01AC012F0D1C
:10277000311D411D511D0E947128DC01CB018E0DC0
:10278000911DA11DB11D80599A4CA249B74C80934F
:10279000B4039093B503A093B603B093B7038CE052
:1027A000ECEAF3E0D80101900D928A95E1F7C801B7
:1027B0002E960FB6F894DEBF0FBECDBFDF91CF913E
:1027C0001F910F91FF90EF90DF90CF9008958F921F
:1027D0009F92AF92BF920F931F93CF93DF93CDB78A
:1027E000DEB7A1970FB6F894DEBF0FBECDBF19A21A
:1027F000423008F44AE08E010F5D1F4F842E912C69
:10280000A12CB12CA50194010E941F22E62FB90131
:10281000CA0101501109EA3014F4E05D01C0E95C1D
:10282000D801EC93232B242B252B61F7C8010E94A0
:10283000E010A1960FB6F894DEBF0FBECDBFDF91BA
:10284000CF911F910F91BF90AF909F908F9008955F
:10285000CF93DF93D82FC62F88E60E94C6126D2F24
:1028600084E294E00E94F50A6C2F84E294E00E94D6
:10287000F50ADF91CF910C9469121F93CF93DF93E8
:102880001F92CDB7DEB7682F88E669830E94C61213
:10289000698184E294E00E94F50A0E94691281E055
:1028A00090E00E94D0129091B8038091B9039817DC
:1028B000F1F384E294E00E94A90A182F0E946912A1
:1028C000812F0F90DF91CF911F9108958FE00E948B
:1028D0003D14682F6D7F8FE00C942814CF93DF9305
:1028E000CDB7DEB7AD970FB6F894DEBF0FBECDBF44
:1028F000789484B5826084BD84B5816084BD85B5DB
:10290000826085BD85B5816085BD80916E008160E6
:1029100080936E001092810080918100826080938C
:10292000810080918100816080938100809180008E
:102930008160809380008091B10084608093B100B9
:102940008091B00081608093B00080917A008460B3
:1029500080937A0080917A00826080937A008091DF
:102960007A00816080937A0080917A0080688093F9
:102970007A001092C1008CE390E09093E104809380
:10298000E00468E573E080E090E00E942F026EEFC3
:1029900072E081E090E00E942F026FEF72E082E02F
:1029A00090E00E942F0261E073E083E090E00E94DB
:1029B0002F0260E073E084E090E00E942F0262E06A
:1029C00073E085E090E00E941B021092B903109220
:1029D000B80310920204109223040E94AC0F8EE000
:1029E0000E943D14682F6B738EE00E94281480EDC6
:1029F00097E09093AD038093AC0311E01093AE0386
:102A00001093AF031092B0031092B1031092B2036F
:102A100086E08093B30380E795E3ADE6B8E3809367
:102A2000B4039093B503A093B603B093B7038EE0BD
:102A30000E943D14682F6D7F8EE00E9428140E9432
:102A4000661488E60E94C6128BE090E00E9419137B
:102A500060E084E294E00E94F50A60E084E294E0A1
:102A60000E94F50A60E884E294E00E94F50A0E9460
:102A700069128EE00E943D14682F62608EE00E9411
:102A800028140E94661487E493E00E941E1361E0FC
:102A90008DE00E94AE0D60E08DE00E947A0D61E055
:102AA0008CE00E94AE0D61E08CE00E947A0D61E046
:102AB0008BE00E94AE0D60E08BE00E947A0D20E07A
:102AC00042E060E187EE94E00E94CA0F87EE94E056
:102AD0000E940C1087E493E00E941E130E94910252
:102AE0000E94390290934603809345031093570345
:102AF00020914B0380914C0390E03CE3239F800D99
:102B0000911D1124019690935603809355038F399C
:102B1000954024F0109256031092550387EE94E0EE
:102B20000E94141060E080E00E949D1008EEE02EEC
:102B300003E0F02E87EE94E00E94141087E493E007
:102B40000E941E130E9491020E9439029093460334
:102B50008093450380914A0380935B0387E493E06D
:102B60000E941E1361E771E082E794E00E94920CDC
:102B700020914B0380914C0390E05CE3259F800DF6
:102B8000911D112490935A0380935903209145037A
:102B900030914603F901EE0FFF1FEB5FFC4F4081C0
:102BA00051814817590709F078C02F3F3F4F09F46A
:102BB00074C087EE94E00E940C1087EE94E00E94AF
:102BC000141060E080E00E949D10609145037091B8
:102BD00046036F5F7F4F4AE0CE0101960E94AE0C24
:102BE00068E471E0CE0182960E94390DBE016F5FEC
:102BF0007F4FCE0182960E946C0C0E94D710CE01AE
:102C000082960E94A90CCE0101960E94A90C61E057
:102C10008DE00E947A0D60E08CE00E947A0D809138
:102C200058038E9DB0018F9D700D1124072E000C4E
:102C3000880B990B0E94EE0D60E08DE00E947A0DEA
:102C400061E08CE00E947A0D87EE94E00E941410FF
:102C500060E080E00E949D100E943902909346033C
:102C60008093450381E08093570320914B0380912B
:102C70004C0390E0ECE32E9F800D911D11240196F2
:102C80008F39F5E09F072CF49093560380935503FA
:102C900004C0109256031092550360E080E00E9439
:102CA0009D10E0914E038E2F90E0FC013197E730AC
:102CB000F105D0F4EC5CFF4F0C94412281E591E0EA
:102CC00011C087E591E00EC08CE591E00BC081E674
:102CD00091E008C087E691E005C08CE691E002C073
:102CE00082E791E00E94F21060914B034AE0CE012E
:102CF00082966A3018F50E94DA0C6AE771E0CE011C
:102D000088960E94390DBE016E5D7F4FCE01889678
:102D10000E946C0C6FEC72E00E94530CBC01CE015F
:102D200001960E941F0DCE0101960E94D710CE0180
:102D300001960E94A90CCE01889613C00E94DA0C5D
:102D4000BE016E5D7F4FCE0101960E941F0D6FEC9C
:102D500072E0CE0101960E94530C0E94D710CE0162
:102D600001960E94A90CCE0182960E94A90C609146
:102D70004C034AE0CE0182966A3018F50E94DA0CC4
:102D80006AE771E0CE0188960E94390DBE016E5D42
:102D90007F4FCE0188960E946C0C6FEC72E00E940F
:102DA000530CBC01CE0101960E941F0DCE0101966D
:102DB0000E94D710CE0101960E94A90CCE018896E0
:102DC00013C00E94DA0CBE016E5D7F4FCE010196EA
:102DD0000E941F0D6FEC72E0CE0101960E94530C11
:102DE0000E94D710CE0101960E94A90CCE018296B6
:102DF0000E94A90C60914D034AE0CE016A3020F593
:102E000082960E94DA0C6AE771E0CE0188960E94F1
:102E1000390DBE016E5D7F4FCE0188960E946C0C0D
:102E2000BC01CE0101960E941F0DCE0101960E94A9
:102E3000D710CE0101960E94A90CCE0188960E945F
:102E4000A90CCE01829609C001960E94DA0CCE012F
:102E500001960E94D710CE0101960E94A90C61E054
:102E600080E00E949D1088E60E94C61281E190E0F9
:102E70000E9419130E94691282E090E00E94D01211
:102E80009091B8038091B9039817F1F384E294E02C
:102E90000E94A90A182F84E294E00E94A90A1BA2AA
:102EA0001AA21DA21CA21FA21EA2D12EC12CB601C5
:102EB000682BB6E075956795BA95E1F7072E000C7B
:102EC000880B990B0E94622720E030E040E85EE327
:102ED0000E949D278E010F5F1F4F22E044E00E9459
:102EE0005324BC01CE0182960E94920C6CE771E0E3
:102EF000C8010E94390DBE016E5D7F4FC8010E945E
:102F00006C0C63E871E00E94530C0E94D710C8015A
:102F10000E94A90CCE0182960E94A90C0E941A114F
:102F200080930403813409F092C061E08BE00E9439
:102F30007A0D87EE94E00E940C1087EE94E00E94D8
:102F4000141060E080E00E949D1085E891E00E94EE
:102F5000F21061E080E00E949D1082E991E00E9401
:102F6000F21087E493E00E941E1380900203909079
:102F70000303092C000CAA08BB0880914F03909111
:102F80005003A0915103B0915203880E991EAA1EBE
:102F9000BB1E61E08DE00E947A0D60E08CE00E9433
:102FA0007A0D809101038E9DB0018F9D700D1124CB
:102FB000072E000C880B990B0E94EE0D60E08DE04F
:102FC0000E947A0D61E08CE00E947A0D80910003EE
:102FD0008E9DB0018F9D700D1124072E000C880B63
:102FE000990B0E94EE0D87E493E00E941E138091DE
:102FF0004F0390915003A0915103B0915203881553
:103000009905AA05BB0528F287EE94E00E941410EA
:1030100060E08BE00E947A0D81E08093570320915D
:103020004B0380914C0390E03CE3239F800D911D66
:103030001124019690935603809355038F39954040
:103040000CF41DC5109256031092550318C5833217
:1030500009F0F9C487EE94E00E94141087EE94E022
:103060000E940C1060E080E00E949D1083EA91E0D5
:103070000E94F21061E080E00E949D100E94F41016
:103080000E94FE100E94641280930403833309F4AB
:1030900016C194F4813359F1823309F0C3C487EE29
:1030A00094E00E94141060E080E00E949D1081EB8B
:1030B00091E00E94F21062C0853309F401C20CF461
:1030C0006FC1863309F0AEC487EE94E00E941410FD
:1030D00060E080E00E949D1080EF91E00E94F2107D
:1030E00061E080E00E949D10109254030BC20E9488
:1030F0001B0387E493E00E941E1381E08093570333
:1031000020914B0380914C0390E05CE3259F800D60
:10311000911D1124019690935603809355038F3986
:1031200095400CF487C4109256031092550382C444
:103130000E9411110E94081187EE94E00E94141061
:1031400060E080E00E949D1088E492E00E94F2100E
:1031500060ED77E080E090E00E94EE0D87EE94E075
:103160000E94141060E080E00E949D1081EB91E0CD
:103170000E94F2100E94FE100E94F41061E081E0B3
:103180000E949D108FEB91E00E94F21061E080E0C0
:103190000E949D1061E771E088E494E00E94920C27
:1031A0000E94641280930403282F082E000C330B16
:1031B000205331092A30310550F4682F88E494E017
:1031C0000E947F0C61E080E00E949D101CC083344F
:1031D00099F587EE94E00E94141060E080E00E9470
:1031E0009D1081EB91E00E94F21061E080E00E946E
:1031F0009D1060914C0470914D046150710988E4F8
:1032000094E00E94440C68E474E0CE0101960E94B0
:103210001F0D6FEB71E0CE0101960E94530C0E94CE
:10322000D710CE0101960E94A90C80914C0461E058
:1032300081500E949D10B4CF8332B9F588E494E0A8
:103240000E94390C8B019C0101501109210931099F
:10325000033611052105310508F06ACF6093580344
:1032600068E573E080E090E00E94FC010E9411118B
:103270000E94081187EE94E00E94141060E080E044
:103280000E949D108CE392E00E94F21068EB7BE0BC
:1032900080E090E00E94EE0D87EE94E00E94141012
:1032A00060E080E00E949D1003C08A3209F078CF70
:1032B00061E771E088E494E00E94920C03C187EE1C
:1032C00094E00E94141060E080E00E949D1081EC68
:1032D00091E00E94F21061E080E00E949D10109247
:1032E00054030E946412809304039FEC980F923061
:1032F00000F5682FCE0101960E94070DCE010196C0
:103300000E94390C60935403CE0101960E94A90CCF
:1033100061E080E00E949D106091540370E080E0C5
:1033200090E04AE00E94E71361E080E00E949D1077
:10333000D8CF833289F5809154039FEF980F923054
:1033400080F68093FE026EEF72E081E090E00E94D2
:10335000FC0187EE94E00E9414100E9411110E945B
:10336000081181ED91E00E94F21068EB7BE080E0B3
:1033700090E00E94EE0D0E9491020E94390290930B
:1033800046038093450387EE94E00E94141060E0AA
:1033900080E00E949D1029C38A3209F0A2CF25C384
:1033A00087EE94E00E94141060E080E00E949D107F
:1033B00082EE91E00E94F21061E080E00E949D1098
:1033C00061E771E082E494E00E94920C0E94641232
:1033D00080930403282F082E000C330B205331094F
:1033E0002A30310550F4682F82E494E00E947F0C6B
:1033F00061E080E00E949D101CC08334F9F487EEE8
:1034000094E00E94141060E080E00E949D1082EE23
:1034100091E00E94F21061E080E00E949D106091B6
:103420004604709147046150710982E494E00E945F
:10343000440C82E494E00E94D710C8CF8332B1F5E7
:1034400082E494E00E94390C613171058105910597
:1034500008F055C3660F6093FF026FEF72E082E0E1
:1034600090E00E94FC0187EE94E00E9414100E94FC
:1034700011110E9408118CE392E00E94F21068EB97
:103480007BE080E090E00E94EE0D0E9491020E949D
:103490003902909346038093450387EE94E00E949F
:1034A000141060E080E00E949D1003C08A3209F091
:1034B0008DCF61E771E082E494E00E94920C19CE16
:1034C0000E94940787E493E00E941E1381E080939A
:1034D000570320914B0380914C0390E0FCE32F9F16
:1034E000800D911D112401969093560380935503EE
:1034F0008F3995400CF017CE9DC2833259F18A3234
:1035000009F473C20E946412809304039FEC980F25
:10351000923098F7682FCE0101960E94070DCE01D8
:1035200001960E94390C60935403CE0101960E94CB
:10353000A90C61E080E00E949D106091540370E04E
:1035400080E090E04AE00E94E71361E080E00E94A2
:103550009D10D8CF809154038150823098F687EE29
:1035600094E00E94141060E080E00E949D1081E0D1
:1035700092E00E94F21061E080E00E949D101092A3
:1035800053030E94641280930403282F082E000C1A
:10359000330B205331092A30310500F5682FCE0155
:1035A00001960E94070DCE0101960E94390C60938E
:1035B0005303CE0101960E94A90C61E080E00E94B5
:1035C0009D106091530370E080E090E04AE00E941B
:1035D000E71361E080E00E949D10D3CF833209F0B1
:1035E000FFC1809153038150873008F0D2C187EE2C
:1035F00094E00E94141060E080E00E949D1082EE32
:1036000091E00E94F21061E080E00E949D1061E76D
:1036100071E082E494E00E94920C0E946412809314
:103620000403282F082E000C330B205331092A30B5
:10363000310550F4682F82E494E00E947F0C61E031
:1036400080E00E949D1096C1833209F077C182E428
:1036500094E00E94390C613171058105910508F0F3
:1036600075C277247394812C912C540183946CE35C
:10367000662E840182E494E00E94390C6815790575
:103680008A059B050CF4D3C087EE94E00E941410C9
:1036900060E080E00E949D104AE0B401CE010196F6
:1036A0000E94AE0C61E172E0CE0182960E94390D5B
:1036B000BE016F5F7F4FCE0182960E946C0C63E16A
:1036C00072E00E94530C0E94D710CE0182960E9495
:1036D000A90CCE0101960E94A90C61E080E00E9435
:1036E0009D108FE192E00E94F21061E771E08AE59F
:1036F00094E00E94920C0E94641280930403282F8D
:10370000082E000C330B205331092A30310550F4B8
:10371000682F8AE594E00E947F0C61E089E00E94B6
:103720009D1080C08332E1F58AE594E00E94390C57
:10373000683171058105910508F02FC287EE94E08C
:103740000E94141060E080E00E949D104AE0B801E1
:10375000CE0101960E94AE0C61E172E0CE0182962C
:103760000E94390DBE016F5F7F4FCE0182960E948D
:103770006C0C63E172E00E94530C0E94D710CE01E2
:1037800082960E94A90CCE0101960E94A90C61E0CC
:1037900080E00E949D1089E292E00E94F210A3C294
:1037A000833409F0A8CF87EE94E00E94141060E003
:1037B00080E00E949D104AE0B801CE0101960E946F
:1037C000AE0C61E172E0CE0182960E94390DBE011D
:1037D0006F5F7F4FCE0182960E946C0C63E172E0B6
:1037E0000E94530C0E94D710CE0182960E94A90C11
:1037F000CE0101960E94A90C61E080E00E949D101C
:103800008FE192E00E94F21061E089E00E949D1039
:1038100060915E0470915F04615071098AE594E0E3
:103820000E94440C8AE594E00E94D71064CF660F92
:10383000771F9B01220F331F80E090E060327105FB
:103840006CF4FC01E20FF31FEB5FFC4F4FEF5FEFF7
:10385000518340836F5F7F4F0296F0CF8091530377
:1038600090915403913031F450E4859FC0011124AC
:10387000C6970BC0923039F4E0E48E9FC00111244A
:1038800086579E4F02C080E090E025E0A22E23E004
:10389000B22E8C0105501340C8018A0D9B1DF50105
:1038A000219131915F013A832983BE016F5F7F4F80
:1038B0000E94C8011A821982F5E4AF16F3E0BF0630
:1038C00059F70E9491020E94390290934603809317
:1038D000450387EE94E00E94141060E080E00E94AF
:1038E0009D100E9411110E9408118CE392E00E9429
:1038F000F21068EB7BE080E090E00E94EE0D87EE36
:1039000094E00E94141060E080E00E949D1061E746
:1039100071E08AE594E00E94920C61E771E084E531
:1039200094E00E94920C1092540361E771E082E4EB
:1039300094E00E94920C1092530359C08334F9F41E
:1039400087EE94E00E94141060E080E00E949D10D9
:1039500082EE91E00E94F21061E080E00E949D10F2
:1039600060914604709147046150710982E494E0CB
:103970000E94440C82E494E00E94D7104ECE8A321A
:1039800009F04BCE61E771E082E494E00E94920C72
:103990002AC00E9411110E94081187EE94E00E9433
:1039A000141060E080E00E949D1088E492E00E9484
:1039B000F21060ED77E080E090E00E94EE0D87EE7F
:1039C00094E00E94141060E080E00E949D1081E06D
:1039D00092E00E94F2100E94FE100E94F410CBCDE3
:1039E0008A3209F0CECD109253031092540387E42B
:1039F00093E00E941E1381E08093570320914B03B4
:103A000080914C0390E03CE3239F800D911D112495
:103A1000019690935603809355038F3995400CF08F
:103A200082CB08C081E08093570387E493E00E9433
:103A30001E1366CB0E9411110E94081187EE94E0BC
:103A40000E9414101CC08823D1F087EE94E00E94DD
:103A50000C1081E08093570320914B0380914C031D
:103A600090E0FCE32F9F800D911D1124019690930F
:103A70005603809355038F3995400CF0E3CA80912B
:103A80005703882369F120915503309156034091E3
:103A90004B0380914C0390E02115310541F43CE348
:103AA000439F800D911D11240197D1F408C05CE360
:103AB000459F800D911D11242817390788F4E09146
:103AC000E704F091E8040084F185E02D60E087EEE2
:103AD00094E00995109257031092560310925503E3
:103AE0008FE00E943D1481FF6EC30E94661480E047
:103AF00090E0892B09F41EC80E94000017C80E949C
:103B000011110E94081187EE94E00E94141060E0E9
:103B100080E00E949D1088E492E00E94F21060ED27
:103B200077E080E090E00E94EE0D87EE94E00E9446
:103B3000141060E080E00E949D1085E592E00E94F4
:103B4000F2100E94FE100E94F41036CC0E94111157
:103B50000E94081187EE94E00E94141060E080E05B
:103B60000E949D1088E492E00E94F21060ED77E0E0
:103B700080E090E00E94EE0D87EE94E00E94141029
:103B800060E080E00E949D1085E592E00E94F210C6
:103B90000E94FE100E94F41036CD0E9411110E9466
:103BA000081187EE94E00E94141060E080E00E940B
:103BB0009D1088E492E00E94F21060ED77E080E0D2
:103BC00090E00E94EE0D87EE94E00E9414104AE00F
:103BD000B801CE0101960E94AE0C61E172E0CE0107
:103BE00082960E94390DBE016F5F7F4FCE01829693
:103BF0000E946C0C63E172E00E94530C0E94D7108B
:103C0000CE0182960E94A90CCE0101960E94A90CB9
:103C100061E080E00E949D108FE192E00E94F2102E
:103C20000E94FE100E94F41061E089E00E949D1045
:103C30005CCD833209F075C084E594E00E94390CB4
:103C40001B012C016C3371058105910508F4AFC08F
:103C50000E9411110E94081187EE94E00E94141036
:103C600060E080E00E949D1088E492E00E94F210E3
:103C700060ED77E080E090E00E94EE0D87EE94E04A
:103C80000E9414104AE0B801CE0101960E94AE0CC9
:103C900061E172E0CE0182960E94390DBE016F5F34
:103CA0007F4FCE0182960E946C0C63E172E00E940D
:103CB000530C0E94D710CE0182960E94A90CCE010F
:103CC00001960E94A90C61E080E00E949D1089E2AB
:103CD00092E00E94F2100E94FE100E94F41061E037
:103CE00088E00E949D1061E771E084E594E00E9405
:103CF000920C0E94641280930403282F082E000C5B
:103D0000330B205331092A30310508F092CF682F48
:103D100084E594E00E947F0C61E088E00E949D10A1
:103D200041C0833431F787EE94E00E94141060E0C4
:103D300080E00E949D104AE0B801CE0101960E94E9
:103D4000AE0C61E172E0CE0182960E94390DBE0197
:103D50006F5F7F4FCE0182960E946C0C63E172E030
:103D60000E94530C0E94D710CE0182960E94A90C8B
:103D7000CE0101960E94A90C61E080E00E949D1096
:103D800089E292E00E94F21061E088E00E949D10BA
:103D900060915804709159046150710984E594E070
:103DA0000E94440C84E594E00E94D710A2CF8AE5DB
:103DB00094E00E94390CEFEFE70DF0E0EE0FFF1FEB
:103DC000EB5FFC4F669E9001679E300D1124220E22
:103DD000331E3182208287EE94E00E94141060E04E
:103DE00080E00E949D104AE0B801CE0101960E9439
:103DF000AE0C61E172E0CE0182960E94390DBE01E7
:103E00006F5F7F4FCE0182960E946C0C62E372E07E
:103E10000E94530C0E94D710CE0182960E94A90CDA
:103E2000CE0101960E94A90C61E080E00E949D10E5
:103E30008FE192E00E94F21061E771E08AE594E080
:103E40000E94920C0E94641280930403282F082E73
:103E5000000C330B205331092A30310550F4682F00
:103E60008AE594E00E947F0C61E089E00E949D1049
:103E70009BC0833209F056C08AE594E00E94390C59
:103E8000683171058105910508F493C00E941111F4
:103E90000E94081187EE94E00E94141060E080E018
:103EA0000E949D1088E492E00E94F21060ED77E09D
:103EB00080E090E00E94EE0D87EE94E00E941410E6
:103EC0004AE0B801CE0101960E94AE0C61E172E0B9
:103ED000CE0182960E94390DBE016F5F7F4FCE01E9
:103EE00082960E946C0C62E372E00E94530C0E9466
:103EF000D710CE0182960E94A90CCE0101960E9495
:103F0000A90C61E080E00E949D108FE192E00E9488
:103F1000F2100E94FE100E94F41061E089E00E94FD
:103F20009D108ACF833409F08DCF87EE94E00E94F4
:103F3000141060E080E00E949D104AE0B801CE01BC
:103F400001960E94AE0C61E172E0CE0182960E9461
:103F5000390DBE016F5F7F4FCE0182960E946C0CBF
:103F600062E372E00E94530C0E94D710CE01829649
:103F70000E94A90CCE0101960E94A90C61E080E08C
:103F80000E949D108FE192E00E94F21061E089E0B2
:103F90000E949D1060915E0470915F0461507109F0
:103FA0008AE594E00E94440C8AE594E00E94D710D0
:103FB00049CF87EE94E00E94141060E080E00E94F8
:103FC0009D104AE0B801CE0101960E94AE0C61E15D
:103FD00072E0CE0182960E94390DBE016F5F7F4F65
:103FE000CE0182960E946C0C62E372E00E94530C38
:103FF0000E94D710CE0182960E94A90CCE01019694
:104000000E94A90C61E080E00E949D1089E292E08C
:104010000E94F21061E771E084E594E00E94920C46
:104020000E94641280930403282F082E000C330B87
:10403000205331092A30310550F4682F84E594E08B
:104040000E947F0C61E088E00E949D106BC083326B
:1040500039F584E594E00E94390C1B012C016C3386
:1040600071058105910508F062C08AE594E00E941F
:10407000390CE72DF0E0EE0FFF1FEB5FFC4F669E63
:104080009001679E300D1124220E331E3182208252
:104090005FEF851A950AA50AB50A73947394E9CA65
:1040A000833409F0BDCF87EE94E00E94141060E0E5
:1040B00080E00E949D104AE0B801CE0101960E9466
:1040C000AE0C61E172E0CE0182960E94390DBE0114
:1040D0006F5F7F4FCE0182960E946C0C62E372E0AC
:1040E0000E94530C0E94D710CE0182960E94A90C08
:1040F000CE0101960E94A90C61E080E00E949D1013
:1041000089E292E00E94F21061E088E00E949D1036
:1041100060915804709159046150710984E594E0EC
:104120000E94440C84E594E00E94D71079CF0E944D
:1041300011110E94081187EE94E00E94141060E0B3
:1041400080E00E949D1088E492E00E94F21060EDF1
:1041500077E080E090E00E94EE0D87EE94E00E9410
:1041600014104AE0B801CE0101960E94AE0C61E144
:1041700072E0CE0182960E94390DBE016F5F7F4FC3
:10418000CE0182960E946C0C62E372E00E94530C96
:104190000E94D710CE0182960E94A90CCE010196F2
:1041A0000E94A90C61E080E00E949D1089E292E0EB
:1041B0000E94F2100E94FE100E94F41061E088E05C
:1041C0000E949D1027CF90914A0380915B03981322
:1041D0008ECC0C94AE1580E394E00E94A90C86E38B
:1041E00094E00E94A90C8CE394E00E94A90C82E464
:1041F00094E00E94A90C88E494E00E94A90C8EE44B
:1042000094E00E94A90C84E594E00E94A90C8AE540
:1042100094E00E94A90C80E694E00E94A90C86E636
:1042200094E00E94A90C8CE694E00E94A90C82E71D
:1042300094E00C94A90C109227041092260488EEA6
:1042400093E0A0E0B0E08093280490932904A09329
:104250002A04B0932B0482E291E09093250480938A
:1042600024041092EA041092E9048CE391E0909304
:10427000E8048093E7041092F7048FEF8093F6042C
:104280001092F5041092F80487E28093F2041092E1
:10429000F3041092F4041092F1041092F00484E0FC
:1042A0008093F90482E08093FA0481E08093FB0418
:1042B00080E18093FC0480E28093FD0480E480939D
:1042C000FE0480E88093FF0440E050E063E087EE66
:1042D00094E00E94240B10927A0410927E041092B3
:1042E0007D0410927F0482E391E09093790480939F
:1042F000780480E090E0FC01E858FB4F148E10A297
:10430000178E11A206968C339105A9F784E091E0EF
:104310009093DB048093DA0480E091E09093DD04D5
:104320008093DC0484E08093DE048093DF0488E0E3
:1043300091E09093D9048093D8048AE090E0909320
:10434000E1048093E00484EF91E09093E304809390
:10435000E2041092E6041092E5041092D404109244
:10436000D5041092D6041092D7041092E40461E7A9
:1043700071E082E794E00E94390D61E771E08CE61C
:1043800094E00E94390D61E771E086E694E00E94B6
:10439000390D61E771E080E694E00E94390D61E734
:1043A00071E08AE594E00E94390D61E771E084E5EF
:1043B00094E00E94390D61E771E08EE494E00E9480
:1043C000390D61E771E088E494E00E94390D61E7FE
:1043D00071E082E494E00E94390D61E771E08CE3C2
:1043E00094E00E94390D61E771E086E394E00E9459
:1043F000390D61E771E080E394E00C94390D991B6D
:1044000079E004C0991F961708F0961B881F7A95CB
:10441000C9F780950895AA1BBB1B51E107C0AA1FCD
:10442000BB1FA617B70710F0A61BB70B881F991F55
:104430005A95A9F780959095BC01CD010895A1E208
:104440001A2EAA1BBB1BFD010DC0AA1FBB1FEE1F0E
:10445000FF1FA217B307E407F50720F0A21BB30B59
:10446000E40BF50B661F771F881F991F1A9469F7D5
:1044700060957095809590959B01AC01BD01CF0131
:104480000895EE0FFF1F0590F491E02D0994CF934E
:10449000DF938230910510F482E090E0E091030513
:1044A000F091040520E030E0C0E0D0E0309711F159
:1044B0004081518148175907C0F04817590761F4E6
:1044C00082819381209719F09B838A832BC09093DC
:1044D00004058093030526C02115310519F0421704
:1044E000530718F49A01BE01DF01EF010280F38146
:1044F000E02DDCCF2115310509F1281B390B2430C3
:10450000310590F412968D919C9113976115710568
:1045100021F0FB019383828304C090930405809370
:104520000305FD01329644C0FD01E20FF31F8193A4
:104530009193225031092D933C933AC0209101056B
:1045400030910205232B41F420911A0130911B0177
:104550003093020520930105209118013091190133
:104560002115310541F42DB73EB740911C01509102
:104570001D01241B350BE0910105F0910205E217A6
:10458000F307A0F42E1B3F0B2817390778F0AC0176
:104590004E5F5F4F2417350748F04E0F5F1F509353
:1045A0000205409301058193919302C0E0E0F0E0A1
:1045B000CF01DF91CF9108950F931F93CF93DF9396
:1045C000009709F48CC0FC0132971382128200918B
:1045D0000305109104050115110581F42081318135
:1045E000820F931F2091010530910205281739078A
:1045F00079F5F0930205E093010571C0D80140E020
:1046000050E0AE17BF0750F412962D913C911397CE
:10461000AD012115310509F1D901F3CF9D01DA0171
:104620003383228360817181860F971F82179307DE
:1046300069F4EC0128813981260F371F2E5F3F4F27
:10464000318320838A819B8193838283452B29F444
:10465000F0930405E093030542C01396FC93EE9398
:104660001297ED01499159919E01240F351FE217D0
:10467000F30771F480819181840F951F0296119642
:104680009C938E938281938113969C938E93129721
:10469000E0E0F0E0D80112968D919C91139700977D
:1046A00019F0F8018C01F6CF8D919C9198012E5F45
:1046B0003F4F820F931F209101053091020528176B
:1046C000390769F4309729F4109204051092030514
:1046D00002C0138212821093020500930105DF913C
:1046E000CF911F910F910895A0E0B0E0EAE7F3E2C7
:1046F0000C948028EC01009721F4CB010E94472202
:10470000B8C0FC01E60FF71F9C0122503109E217E7
:10471000F30708F4ACC0D9010D911C91119706174D
:104720001707B0F00530110508F49FC0C8010497C1
:104730008617970708F499C002501109061B170B3A
:10474000019311936D937C93CF010E94DC228DC065
:104750005B01A01AB10A4C01800E911EA0910305C5
:10476000B091040540E050E0E12CF12C109709F4E1
:104770004AC0A815B905D1F56D907C9011976301D9
:1047800082E0C80ED11CCA14DB0480F1A3014A19CF
:104790005B096A0182E0C80ED11C1296BC90129788
:1047A0001396AC91B5E0CB16D10440F0B282A3834E
:1047B00051834083D9016D937C930AC00E5F1F4FD4
:1047C000C301800F911FF90191838083EB2DFA2F94
:1047D000E114F10431F0D7011396FC93EE93129794
:1047E00044C0F0930405E09303053FC08D919C9174
:1047F00011974817590708F4AC017D0112960D90E6
:10480000BC91A02DB3CF8091010590910205881530
:104810009905E1F446175707C8F480911801909163
:104820001901009741F48DB79EB740911C0150913A
:104830001D01841B950BE817F907C8F4F0930205D6
:10484000E0930105F901718360830FC0CB010E94E1
:1048500047227C01009759F0A801BE010E94432421
:10486000CE010E94DC22C70104C0CE0102C080E05C
:1048700090E0CDB7DEB7EEE00C949C2881E090E0AC
:10488000F8940C94C228FB01DC0102C001900D9247
:1048900041505040D8F70895FB01DC0101900D9282
:1048A0000020E1F70895EF920F931F93CF93DF93CA
:1048B000E80147FD02C034E001C034E1E42F440FB9
:1048C000FF0BF7FF03C0F195E195F109E32E022FED
:1048D0002E2FAE010E94EA24CE01DF91CF911F91CD
:1048E0000F91EF9008951F93FC0199278827BC0131
:1048F000E89411911032E9F3193010F01E30C8F32A
:104900001B3251F01D3249F4689406C00E94B02455
:10491000610F711D811D911D119110531A30B0F35B
:104920003EF490958095709561957F4F8F4F9F4F86
:104930001F9108954532510520F4423010F00C9437
:10494000A524FB011082CB010895BB274A3031F426
:10495000992322F4BDE2909581959F4F0C94D12428
:10496000592F482F372F262F660F771F881F991F23
:10497000660F771F881F991F620F731F841F951F73
:10498000660F771F881F991F08954532510520F43F
:10499000423010F00C94D024FB011082CB0108951A
:1049A000BB27FB015527AA27880F991FAA1FA41709
:1049B00010F0A41B83955051B9F7A05DAA3308F0FD
:1049C000A95DA193009779F7B111B1931192CB0131
:1049D0000C9450274F925F926F927F929F92AF926A
:1049E000BF92CF92DF92EF92FF920F931F93CF93DC
:1049F000DF93CDB7DEB729970FB6F894DEBF0FBEB1
:104A0000CDBF6A01122FB02E2BE3201720F0FF2418
:104A1000F394F00E02C0BCE3FB2E0F2D27E0AE0195
:104A20004F5F5F4F0E947826AC018981982F997063
:104A3000913031F0E1FC06C0E0FE06C090E205C016
:104A40009DE203C09BE201C090E0EE2DE07183FF88
:104A50003CC0911102C083E001C084E0811718F4CA
:104A6000212F281B01C020E0E1110BC0F601822F8D
:104A700030E2882319F031938150FBCFC20ED11C54
:104A800020E0992329F0D6019C93F60131966F011D
:104A9000C6010396E2FE0AC03EE4D6013C9341E41F
:104AA00011964C93119712963C9306C03EE6F60180
:104AB000308341E641833283FC01322F40E23323CD
:104AC00009F442C041933150FACF82FF44C09111A2
:104AD00002C083E001C084E0811718F4212F281B55
:104AE00001C020E0E1110BC0F601822F30E28823E3
:104AF00019F031938150FBCFC20ED11C20E09923D5
:104B000029F0D6019C93F60131966F01C6010396F8
:104B1000E2FE0BC039E4D6013C933EE411963C938F
:104B2000119736E412963C9307C039E6F6013083BC
:104B30003EE6318336E63283FC01322F40E23323F6
:104B400019F041933150FBCFFC01E20FF11D1082AF
:104B50008EEF9FEFB7C0F1E0911101C0F0E06F2F31
:104B600070E01416150624F49A012F5F3F4F02C01F
:104B700021E030E0260F371FBB2029F06B2D70E0BD
:104B80006F5F7F4F02C060E070E0260F371F612F1C
:104B900070E0261737071CF4121B212F01C020E0FC
:104BA0003E2D387159F4D601322F60E2332319F0CB
:104BB0006D933150FBCFC20ED11C20E0FF2331F0AA
:104BC000D6019C93B6016F5F7F4F6B01E1110BC063
:104BD000F601922F30E3992319F031939150FBCFD6
:104BE000C20ED11C20E09F2D940F3A81782F707156
:104BF000A72E84FF03C0313309F49150191624F411
:104C0000993018F098E001C091E0E42F852F57FF0C
:104C100002C0E0E080E06E2F782FE0E0F0E0AEE24E
:104C20009A2E3A01691A71082A01461A570A0B2D61
:104C300010E01195019511096F3F8FEF780729F466
:104C4000D6019C92C60101966C014617570784F065
:104C5000661677066CF47F01E40CF51CA1E0B0E069
:104C6000AC0FBD1FEA0EFB1ED7011196BC9002C00F
:104C700090E3B92E615071093196C60101967C010D
:104C80006017710724F0D601BC926C01D5CF641770
:104C9000750741F4363320F4353321F4A11002C0F6
:104CA00081E3B82EF601B082F701822F90E28823CB
:104CB00019F091938150FBCFF701E20FF11D1082A3
:104CC00080E090E029960FB6F894DEBF0FBECDBF0E
:104CD000DF91CF911F910F91FF90EF90DF90CF90D8
:104CE000BF90AF909F907F906F905F904F9008958E
:104CF000283008F027E03327DA01990F311D87FDAE
:104D0000916000966105710539F432602E5F3D9324
:104D100030E32A95E1F708959F3F30F08038710520
:104D2000610509F03C5F3C5F3D93913008F080687D
:104D3000911DDF93CF931F930F93FF92EF92192F43
:104D4000987F9695E92F96959695E90FFF27EE5B4C
:104D5000FE4F99273327EE24FF24A701E701059092
:104D60000894079428F4360FE71EF81E491F511DBA
:104D7000660F771F881F991F0694A1F70590079467
:104D800028F4E70EF81E491F561FC11D770F881F14
:104D9000991F661F0694A1F70590079428F4F80E52
:104DA000491F561FC71FD11D880F991F661F771FE8
:104DB0000694A1F70590079420F4490F561FC71FCA
:104DC000D81F990F661F771F881F0694A9F7849133
:104DD0001095177041F0D695C79557954795F7945C
:104DE000E7941A95C1F7E8EEF0E0689415901591F4
:104DF00035916591959105907FE27395E118F10ADF
:104E0000430B560BC90BD009C0F7E10CF11E431F31
:104E1000561FC91FD01D7EF4703311F48A95E6CF5A
:104E2000E894015030F0080F0AF40027021708F444
:104E3000202F2395022F7A3328F079E37D932A954A
:104E4000E9F710C07D932A9589F6069497956795A2
:104E5000379517951794E118F10A430B560BC90BB8
:104E6000D00998F023957E9173957A3308F070E31A
:104E70007C932013B8F77E9170617D9330F0839519
:104E800071E37D9370E32A95E1F71124EF90FF9091
:104E90000F911F91CF91DF91992787FD90950895EC
:104EA000DC01FC01672F71917723E1F7329704C091
:104EB0007C916D9370836291AE17BF07C8F308951C
:104EC000E89409C097FB3EF49095809570956195A4
:104ED0007F4F8F4F9F4F9923A9F0F92F96E9BB275A
:104EE0009395F695879577956795B795F111F8CFD6
:104EF000FAF4BB0F11F460FF1BC06F5F7F4F8F4F41
:104F00009F4F16C0882311F096E911C0772321F036
:104F10009EE8872F762F05C0662371F096E8862FCE
:104F200070E060E02AF09A95660F771F881FDAF725
:104F3000880F9695879597F908950E94B0270C944D
:104F400021280E94132838F00E941A2820F0952367
:104F500011F00C940A280C94102811240C94552854
:104F60000E94322870F3959FC1F3950F50E0551FB2
:104F7000629FF001729FBB27F00DB11D639FAA27AE
:104F8000F00DB11DAA1F649F6627B00DA11D661FFD
:104F9000829F2227B00DA11D621F739FB00DA11D1E
:104FA000621F839FA00D611D221F749F3327A00DD8
:104FB000611D231F849F600D211D822F762F6A2F74
:104FC00011249F5750409AF0F1F088234AF0EE0FD9
:104FD000FF1FBB1F661F771F881F91505040A9F706
:104FE0009E3F510580F00C940A280C9455285F3F91
:104FF000E4F3983ED4F3869577956795B795F79542
:10500000E7959F5FC1F7FE2B880F911D96958795B9
:1050100097F9089597F99F6780E870E060E0089538
:105020009FEF80EC089500240A94161617061806C0
:105030000906089500240A9412161306140605069C
:105040000895092E0394000C11F4882352F0BB0F2D
:1050500040F4BF2B11F460FF04C06F5F7F4F8F4F90
:105060009F4F089557FD9058440F551F59F05F3FCB
:1050700071F04795880F97FB991F61F09F3F79F07A
:1050800087950895121613061406551FF2CF4695FC
:10509000F1DF08C0161617061806991FF1CF86957E
:1050A0007105610508940895E894BB276627772762
:1050B000CB0197F90895F999FECF92BD81BDF89A79
:1050C000992780B50895262FF999FECF1FBA92BD72
:1050D00081BD20BD0FB6F894FA9AF99A0FBE0196D9
:1050E00008950E94B328A59F900DB49F900DA49F92
:1050F000800D911D112408952F923F924F925F923F
:105100006F927F928F929F92AF92BF92CF92DF92D7
:10511000EF92FF920F931F93CF93DF93CDB7DEB73C
:10512000CA1BDB0B0FB6F894DEBF0FBECDBF0994D0
:105130002A88398848885F846E847D848C849B8427
:10514000AA84B984C884DF80EE80FD800C811B8135
:10515000AA81B981CE0FD11D0FB6F894DEBF0FBE64
:10516000CDBFED010895A29FB001B39FC001A39FE1
:10517000700D811D1124911DB29F700D811D112490
:10518000911D089510E0C2EFD0E004C0FE010E941E
:0E51900041222196C33FD107C9F7F894FFCF03
:10519E000E0F1011020304053132334134353642FD
:1051AE00373839432A3023440000050580000000BB
:1051BE000000F50AC50ABD0AA90A9A0A990A000052
:1051CE000000EA0DAA0D770D00000000380BEE0965
:1051DE00CA0F240B1F0CFE0B447A776F6E656B2083
:1051EE0000506F6E2E200057742E200053722E200A
:1051FE0000437A772E200050742E2000536F622EBB
:10520E0020004E6965647A2E2000300054656D7062
:10521E002E200043004162792077796C61637A79A0
:10522E0063006F646C61637A207A6173696C616E7E
:10523E006965005779626965727A206F70636A6575
:10524E0000437A617320647A776F6E6B613A0073F4
:10525E00005779626965727A2070726F6772616D3C
:10526E000050726F6772616D2077796272616E6F36
:10527E002100496C6F7363206C656B636A693A0039
:10528E005779626965727A2070726F6772616D3AD2
:10529E0000447A69656E207479676F646E69613A4D
:1052AE00005B005D20506F637A6174656B3A004756
:1052BE006F647A696E613A20004D696E7574613A59
:1052CE0020005D204B6F6E6965633A005A6170690C
:1052DE0073616E6F21212100426C65646E652064DE
:1052EE00616E652100496C6F7363206C656B636A38
:1052FE00693A2000577069737A20726F6B3A0057C3
:10530E007069737A206D6965736961633A005770CD
:10531E0069737A20647A69656E3A00577069737A98
:10532E0020676F647A696E653A00577069737A20E8
:10533E006D696E7574653A00577069737A2073657E
:10534E006B756E64653A00577069737A20726F6B75
:10535E003A2000437A617320747277616E69613A04
:10536E0000437A617320647A776F6E69656E696146
:10537E003A00437A61732070727A657277793A00D7
:0E538E00437A61732050727A657277793A0023
:00000001FF
